{"abi":[{"type":"function","name":"s_balances","inputs":[{"name":"","type":"address","internalType":"address"}],"outputs":[{"name":"","type":"uint256","internalType":"uint256"}],"stateMutability":"view"},{"type":"function","name":"stake","inputs":[{"name":"amount","type":"uint256","internalType":"uint256"},{"name":"token","type":"address","internalType":"address"}],"outputs":[{"name":"","type":"bool","internalType":"bool"}],"stateMutability":"nonpayable"},{"type":"error","name":"TransferFailed","inputs":[]}],"bytecode":{"object":"0x608060405234801561001057600080fd5b5061023d806100206000396000f3fe608060405234801561001057600080fd5b50600436106100365760003560e01c80637acb77571461003b578063ab32eb6914610063575b600080fd5b61004e610049366004610176565b610091565b60405190151581526020015b60405180910390f35b6100836100713660046101a2565b60006020819052908152604090205481565b60405190815260200161005a565b336000908152602081905260408120805484919083906100b29084906101c4565b90915550506040516323b872dd60e01b8152336004820152306024820152604481018490526000906001600160a01b038416906323b872dd906064016020604051808303816000875af115801561010d573d6000803e3d6000fd5b505050506040513d601f19601f8201168201806040525081019061013191906101e5565b905080610151576040516312171d8360e31b815260040160405180910390fd5b90505b92915050565b80356001600160a01b038116811461017157600080fd5b919050565b6000806040838503121561018957600080fd5b823591506101996020840161015a565b90509250929050565b6000602082840312156101b457600080fd5b6101bd8261015a565b9392505050565b8082018082111561015457634e487b7160e01b600052601160045260246000fd5b6000602082840312156101f757600080fd5b8151801515811461015157600080fdfea2646970667358221220925b0d372782d36cc97c27ad12428109029b963e71e65a5d45971de94519c55564736f6c63430008170033","linkReferences":{}},"methodIdentifiers":{"s_balances(address)":"ab32eb69","stake(uint256,address)":"7acb7757"},"id":6}